{
  "_format": "hh-sol-artifact-1",
  "contractName": "TipTweet",
  "sourceName": "contracts/TipTweet.sol",
  "abi": [
    {
      "inputs": [],
      "stateMutability": "payable",
      "type": "constructor"
    },
    {
      "inputs": [
        {
          "internalType": "string",
          "name": "tweetID",
          "type": "string"
        },
        {
          "internalType": "uint256",
          "name": "amount",
          "type": "uint256"
        },
        {
          "internalType": "string",
          "name": "nonce",
          "type": "string"
        },
        {
          "internalType": "bytes",
          "name": "signature",
          "type": "bytes"
        }
      ],
      "name": "claimTip",
      "outputs": [],
      "stateMutability": "nonpayable",
      "type": "function"
    },
    {
      "inputs": [],
      "name": "getBalance",
      "outputs": [
        {
          "internalType": "uint256",
          "name": "",
          "type": "uint256"
        }
      ],
      "stateMutability": "view",
      "type": "function"
    },
    {
      "inputs": [],
      "name": "owner",
      "outputs": [
        {
          "internalType": "address",
          "name": "",
          "type": "address"
        }
      ],
      "stateMutability": "view",
      "type": "function"
    },
    {
      "inputs": [
        {
          "internalType": "bytes",
          "name": "signature",
          "type": "bytes"
        }
      ],
      "name": "tipTweet",
      "outputs": [],
      "stateMutability": "payable",
      "type": "function"
    }
  ],
  "bytecode": "0x6080604052336000806101000a81548173ffffffffffffffffffffffffffffffffffffffff021916908373ffffffffffffffffffffffffffffffffffffffff160217905550610d5c806100536000396000f3fe60806040526004361061003f5760003560e01c806312065fe014610044578063479b17c51461006f5780638da5cb5b1461008b578063d25040da146100b6575b600080fd5b34801561005057600080fd5b506100596100df565b60405161006691906109cb565b60405180910390f35b6100896004803603810190610084919061059b565b6100e7565b005b34801561009757600080fd5b506100a0610147565b6040516100ad91906108eb565b60405180910390f35b3480156100c257600080fd5b506100dd60048036038101906100d891906105dc565b61016b565b005b600047905090565b336002826040516100f8919061083c565b908152602001604051809103902060006101000a81548173ffffffffffffffffffffffffffffffffffffffff021916908373ffffffffffffffffffffffffffffffffffffffff16021790555050565b60008054906101000a900473ffffffffffffffffffffffffffffffffffffffff1681565b60018260405161017b9190610853565b908152602001604051809103902060009054906101000a900460ff16156101d7576040517f08c379a00000000000000000000000000000000000000000000000000000000081526004016101ce9061096b565b60405180910390fd5b600180836040516101e89190610853565b908152602001604051809103902060006101000a81548160ff021916908315150217905550600061024485858530604051602001610229949392919061086a565b604051602081830303815290604052805190602001206103af565b9050600282604051610256919061083c565b908152602001604051809103902060009054906101000a900473ffffffffffffffffffffffffffffffffffffffff1673ffffffffffffffffffffffffffffffffffffffff166102a582846103df565b73ffffffffffffffffffffffffffffffffffffffff16146102fb576040517f08c379a00000000000000000000000000000000000000000000000000000000081526004016102f29061098b565b60405180910390fd5b60003373ffffffffffffffffffffffffffffffffffffffff1685604051610321906108d6565b60006040518083038185875af1925050503d806000811461035e576040519150601f19603f3d011682016040523d82523d6000602084013e610363565b606091505b50509050806103a7576040517f08c379a000000000000000000000000000000000000000000000000000000000815260040161039e9061094b565b60405180910390fd5b505050505050565b6000816040516020016103c291906108b0565b604051602081830303815290604052805190602001209050919050565b6000806000806103ee8561044e565b925092509250600186848484604051600081526020016040526040516104179493929190610906565b6020604051602081039080840390855afa158015610439573d6000803e3d6000fd5b50505060206040510351935050505092915050565b60008060006041845114610497576040517f08c379a000000000000000000000000000000000000000000000000000000000815260040161048e906109ab565b60405180910390fd5b6020840151915060408401519050606084015160001a92509193909250565b60006104c96104c484610a0b565b6109e6565b9050828152602081018484840111156104e157600080fd5b6104ec848285610b21565b509392505050565b600061050761050284610a3c565b6109e6565b90508281526020810184848401111561051f57600080fd5b61052a848285610b21565b509392505050565b600082601f83011261054357600080fd5b81356105538482602086016104b6565b91505092915050565b600082601f83011261056d57600080fd5b813561057d8482602086016104f4565b91505092915050565b60008135905061059581610d0f565b92915050565b6000602082840312156105ad57600080fd5b600082013567ffffffffffffffff8111156105c757600080fd5b6105d384828501610532565b91505092915050565b600080600080608085870312156105f257600080fd5b600085013567ffffffffffffffff81111561060c57600080fd5b6106188782880161055c565b945050602061062987828801610586565b935050604085013567ffffffffffffffff81111561064657600080fd5b6106528782880161055c565b925050606085013567ffffffffffffffff81111561066f57600080fd5b61067b87828801610532565b91505092959194509250565b61069081610aaa565b82525050565b61069f81610abc565b82525050565b6106b66106b182610abc565b610ba6565b82525050565b60006106c782610a6d565b6106d18185610a83565b93506106e1818560208601610b30565b80840191505092915050565b6106fe6106f982610afd565b610b94565b82525050565b600061070f82610a78565b6107198185610a9f565b9350610729818560208601610b30565b80840191505092915050565b6000610742601c83610a9f565b915061074d82610c19565b601c82019050919050565b6000610765602783610a8e565b915061077082610c42565b604082019050919050565b6000610788601283610a8e565b915061079382610c91565b602082019050919050565b60006107ab601783610a8e565b91506107b682610cba565b602082019050919050565b60006107ce600083610a83565b91506107d982610ce3565b600082019050919050565b60006107f1601883610a8e565b91506107fc82610ce6565b602082019050919050565b61081081610ae6565b82525050565b61082761082282610ae6565b610bc2565b82525050565b61083681610af0565b82525050565b600061084882846106bc565b915081905092915050565b600061085f8284610704565b915081905092915050565b60006108768287610704565b91506108828286610816565b6020820191506108928285610704565b915061089e82846106ed565b60148201915081905095945050505050565b60006108bb82610735565b91506108c782846106a5565b60208201915081905092915050565b60006108e1826107c1565b9150819050919050565b60006020820190506109006000830184610687565b92915050565b600060808201905061091b6000830187610696565b610928602083018661082d565b6109356040830185610696565b6109426060830184610696565b95945050505050565b6000602082019050818103600083015261096481610758565b9050919050565b600060208201905081810360008301526109848161077b565b9050919050565b600060208201905081810360008301526109a48161079e565b9050919050565b600060208201905081810360008301526109c4816107e4565b9050919050565b60006020820190506109e06000830184610807565b92915050565b60006109f0610a01565b90506109fc8282610b63565b919050565b6000604051905090565b600067ffffffffffffffff821115610a2657610a25610bcc565b5b610a2f82610bfb565b9050602081019050919050565b600067ffffffffffffffff821115610a5757610a56610bcc565b5b610a6082610bfb565b9050602081019050919050565b600081519050919050565b600081519050919050565b600081905092915050565b600082825260208201905092915050565b600081905092915050565b6000610ab582610ac6565b9050919050565b6000819050919050565b600073ffffffffffffffffffffffffffffffffffffffff82169050919050565b6000819050919050565b600060ff82169050919050565b6000610b0882610b0f565b9050919050565b6000610b1a82610ac6565b9050919050565b82818337600083830152505050565b60005b83811015610b4e578082015181840152602081019050610b33565b83811115610b5d576000848401525b50505050565b610b6c82610bfb565b810181811067ffffffffffffffff82111715610b8b57610b8a610bcc565b5b80604052505050565b6000610b9f82610bb0565b9050919050565b6000819050919050565b6000610bbb82610c0c565b9050919050565b6000819050919050565b7f4e487b7100000000000000000000000000000000000000000000000000000000600052604160045260246000fd5b6000601f19601f8301169050919050565b60008160601b9050919050565b7f19457468657265756d205369676e6564204d6573736167653a0a333200000000600082015250565b7f4661696c656420746f207769746864726177206d6f6e65792066726f6d20636f60008201527f6e74726163742e00000000000000000000000000000000000000000000000000602082015250565b7f4e6f6e636520616c726561647920757365640000000000000000000000000000600082015250565b7f5369676e6174757265206973206e6f742076616c69642e000000000000000000600082015250565b50565b7f696e76616c6964207369676e6174757265206c656e6774680000000000000000600082015250565b610d1881610ae6565b8114610d2357600080fd5b5056fea26469706673582212202fef796ee6f5dae7a43736cc90b922469dc638490caa2670b7b799e7d430305864736f6c63430008040033",
  "linkReferences": {},
  "deployedLinkReferences": {}
}