{
  "_format": "hh-sol-artifact-1",
  "contractName": "TipTweet",
  "sourceName": "contracts/TipTweet.sol",
  "abi": [
    {
      "inputs": [],
      "stateMutability": "payable",
      "type": "constructor"
    },
    {
      "inputs": [],
      "name": "claimTip",
      "outputs": [],
      "stateMutability": "payable",
      "type": "function"
    },
    {
      "inputs": [],
      "name": "getBalance",
      "outputs": [
        {
          "internalType": "uint256",
          "name": "",
          "type": "uint256"
        }
      ],
      "stateMutability": "view",
      "type": "function"
    },
    {
      "inputs": [],
      "name": "owner",
      "outputs": [
        {
          "internalType": "address",
          "name": "",
          "type": "address"
        }
      ],
      "stateMutability": "view",
      "type": "function"
    },
    {
      "inputs": [],
      "name": "tipAmount",
      "outputs": [
        {
          "internalType": "uint256",
          "name": "",
          "type": "uint256"
        }
      ],
      "stateMutability": "view",
      "type": "function"
    },
    {
      "inputs": [],
      "name": "tipId",
      "outputs": [
        {
          "internalType": "string",
          "name": "",
          "type": "string"
        }
      ],
      "stateMutability": "view",
      "type": "function"
    },
    {
      "inputs": [],
      "name": "tipTweet",
      "outputs": [
        {
          "internalType": "string",
          "name": "",
          "type": "string"
        }
      ],
      "stateMutability": "view",
      "type": "function"
    },
    {
      "inputs": [
        {
          "internalType": "string",
          "name": "tweetID",
          "type": "string"
        },
        {
          "internalType": "uint256",
          "name": "amount",
          "type": "uint256"
        },
        {
          "internalType": "string",
          "name": "nonce",
          "type": "string"
        },
        {
          "internalType": "bytes",
          "name": "signature",
          "type": "bytes"
        }
      ],
      "name": "verifySignature",
      "outputs": [],
      "stateMutability": "nonpayable",
      "type": "function"
    }
  ],
  "bytecode": "0x608060405233600360006101000a81548173ffffffffffffffffffffffffffffffffffffffff021916908373ffffffffffffffffffffffffffffffffffffffff160217905550611ba2806100546000396000f3fe6080604052600436106100705760003560e01c806379b8b99f1161004e57806379b8b99f146100f65780638da5cb5b14610121578063b21b46d21461014c578063c24ffe3d1461017557610070565b806312065fe0146100755780632fd49fcd146100a0578063608ac8d5146100cb575b600080fd5b34801561008157600080fd5b5061008a61017f565b6040516100979190611384565b60405180910390f35b3480156100ac57600080fd5b506100b5610187565b6040516100c2919061124b565b60405180910390f35b3480156100d757600080fd5b506100e0610215565b6040516100ed9190611384565b60405180910390f35b34801561010257600080fd5b5061010b61021b565b604051610118919061124b565b60405180910390f35b34801561012d57600080fd5b506101366102a9565b60405161014391906111eb565b60405180910390f35b34801561015857600080fd5b50610173600480360381019061016e9190610eeb565b6102cf565b005b61017d6106f0565b005b600047905090565b600280546101949061186e565b80601f01602080910402602001604051908101604052809291908181526020018280546101c09061186e565b801561020d5780601f106101e25761010080835404028352916020019161020d565b820191906000526020600020905b8154815290600101906020018083116101f057829003601f168201915b505050505081565b60005481565b600180546102289061186e565b80601f01602080910402602001604051908101604052809291908181526020018280546102549061186e565b80156102a15780601f10610276576101008083540402835291602001916102a1565b820191906000526020600020905b81548152906001019060200180831161028457829003601f168201915b505050505081565b600360009054906101000a900473ffffffffffffffffffffffffffffffffffffffff1681565b6004826040516102df9190611153565b908152602001604051809103902060009054906101000a900460ff161561030557600080fd5b60016004836040516103179190611153565b908152602001604051809103902060006101000a81548160ff02191690831515021790555061037b6040518060400160405280600f81526020017f6e6f6e636520636865636b65643a200000000000000000000000000000000000815250836107ee565b60006103b285858530604051602001610397949392919061116a565b6040516020818303038152906040528051906020012061088a565b90506103f26040518060400160405280601281526020017f6d657373616765207265636f76657265642000000000000000000000000000008152506108ba565b6104536040518060400160405280600781526020017f6f776e65723a2000000000000000000000000000000000000000000000000000815250600360009054906101000a900473ffffffffffffffffffffffffffffffffffffffff16610953565b6104926040518060400160405280600981526020017f747765657449443a200000000000000000000000000000000000000000000000815250866107ee565b6104d16040518060400160405280600881526020017f616d6f756e743a20000000000000000000000000000000000000000000000000815250856109ef565b60006104dd8284610a8b565b90506105266040518060400160405280600681526020017f76656a613a20000000000000000000000000000000000000000000000000000081525061052183610afa565b6107ee565b600360009054906101000a900473ffffffffffffffffffffffffffffffffffffffff1673ffffffffffffffffffffffffffffffffffffffff166105698385610a8b565b73ffffffffffffffffffffffffffffffffffffffff16146105bf576040517f08c379a00000000000000000000000000000000000000000000000000000000081526004016105b690611344565b60405180910390fd5b6105fd6040518060400160405280601281526020017f7369676e617475726520766572696669656400000000000000000000000000008152506108ba565b60003373ffffffffffffffffffffffffffffffffffffffff1686604051610623906111d6565b60006040518083038185875af1925050503d8060008114610660576040519150601f19603f3d011682016040523d82523d6000602084013e610665565b606091505b50509050806106a9576040517f08c379a00000000000000000000000000000000000000000000000000000000081526004016106a090611324565b60405180910390fd5b6106e76040518060400160405280600781526020017f73756363657373000000000000000000000000000000000000000000000000008152506108ba565b50505050505050565b6000655af3107a400090504781111561073e576040517f08c379a000000000000000000000000000000000000000000000000000000000815260040161073590611304565b60405180910390fd5b60003373ffffffffffffffffffffffffffffffffffffffff1682604051610764906111d6565b60006040518083038185875af1925050503d80600081146107a1576040519150601f19603f3d011682016040523d82523d6000602084013e6107a6565b606091505b50509050806107ea576040517f08c379a00000000000000000000000000000000000000000000000000000000081526004016107e190611324565b60405180910390fd5b5050565b610886828260405160240161080492919061129d565b6040516020818303038152906040527f4b5c4277000000000000000000000000000000000000000000000000000000007bffffffffffffffffffffffffffffffffffffffffffffffffffffffff19166020820180517bffffffffffffffffffffffffffffffffffffffffffffffffffffffff8381831617835250505050610d2f565b5050565b60008160405160200161089d91906111b0565b604051602081830303815290604052805190602001209050919050565b610950816040516024016108ce919061124b565b6040516020818303038152906040527f41304fac000000000000000000000000000000000000000000000000000000007bffffffffffffffffffffffffffffffffffffffffffffffffffffffff19166020820180517bffffffffffffffffffffffffffffffffffffffffffffffffffffffff8381831617835250505050610d2f565b50565b6109eb828260405160240161096992919061126d565b6040516020818303038152906040527f319af333000000000000000000000000000000000000000000000000000000007bffffffffffffffffffffffffffffffffffffffffffffffffffffffff19166020820180517bffffffffffffffffffffffffffffffffffffffffffffffffffffffff8381831617835250505050610d2f565b5050565b610a878282604051602401610a059291906112d4565b6040516020818303038152906040527f9710a9d0000000000000000000000000000000000000000000000000000000007bffffffffffffffffffffffffffffffffffffffffffffffffffffffff19166020820180517bffffffffffffffffffffffffffffffffffffffffffffffffffffffff8381831617835250505050610d2f565b5050565b600080600080610a9a85610d58565b92509250925060018684848460405160008152602001604052604051610ac39493929190611206565b6020604051602081039080840390855afa158015610ae5573d6000803e3d6000fd5b50505060206040510351935050505092915050565b60606000602867ffffffffffffffff811115610b3f577f4e487b7100000000000000000000000000000000000000000000000000000000600052604160045260246000fd5b6040519080825280601f01601f191660200182016040528015610b715781602001600182028036833780820191505090505b50905060005b6014811015610d25576000816013610b8f919061174d565b6008610b9b91906116b8565b6002610ba7919061159a565b8573ffffffffffffffffffffffffffffffffffffffff16610bc891906114e5565b60f81b9050600060108260f81c610bdf9190611516565b60f81b905060008160f81c6010610bf69190611712565b8360f81c610c049190611781565b60f81b9050610c1282610dc0565b85856002610c2091906116b8565b81518110610c57577f4e487b7100000000000000000000000000000000000000000000000000000000600052603260045260246000fd5b60200101907effffffffffffffffffffffffffffffffffffffffffffffffffffffffffffff1916908160001a905350610c8f81610dc0565b856001866002610c9f91906116b8565b610ca99190611458565b81518110610ce0577f4e487b7100000000000000000000000000000000000000000000000000000000600052603260045260246000fd5b60200101907effffffffffffffffffffffffffffffffffffffffffffffffffffffffffffff1916908160001a9053505050508080610d1d906118d1565b915050610b77565b5080915050919050565b60008151905060006a636f6e736f6c652e6c6f679050602083016000808483855afa5050505050565b60008060006041845114610da1576040517f08c379a0000000000000000000000000000000000000000000000000000000008152600401610d9890611364565b60405180910390fd5b6020840151915060408401519050606084015160001a92509193909250565b6000600a8260f81c60ff161015610deb5760308260f81c610de191906114ae565b60f81b9050610e01565b60578260f81c610dfb91906114ae565b60f81b90505b919050565b6000610e19610e14846113c4565b61139f565b905082815260208101848484011115610e3157600080fd5b610e3c84828561182c565b509392505050565b6000610e57610e52846113f5565b61139f565b905082815260208101848484011115610e6f57600080fd5b610e7a84828561182c565b509392505050565b600082601f830112610e9357600080fd5b8135610ea3848260208601610e06565b91505092915050565b600082601f830112610ebd57600080fd5b8135610ecd848260208601610e44565b91505092915050565b600081359050610ee581611b55565b92915050565b60008060008060808587031215610f0157600080fd5b600085013567ffffffffffffffff811115610f1b57600080fd5b610f2787828801610eac565b9450506020610f3887828801610ed6565b935050604085013567ffffffffffffffff811115610f5557600080fd5b610f6187828801610eac565b925050606085013567ffffffffffffffff811115610f7e57600080fd5b610f8a87828801610e82565b91505092959194509250565b610f9f816117b5565b82525050565b610fae816117c7565b82525050565b610fc5610fc0826117c7565b61192c565b82525050565b610fdc610fd782611808565b61191a565b82525050565b6000610fed82611426565b610ff7818561143c565b935061100781856020860161183b565b61101081611a0e565b840191505092915050565b600061102682611426565b611030818561144d565b935061104081856020860161183b565b80840191505092915050565b6000611059601c8361144d565b915061106482611a39565b601c82019050919050565b600061107c60348361143c565b915061108782611a62565b604082019050919050565b600061109f60278361143c565b91506110aa82611ab1565b604082019050919050565b60006110c260178361143c565b91506110cd82611b00565b602082019050919050565b60006110e5600083611431565b91506110f082611b29565b600082019050919050565b600061110860188361143c565b915061111382611b2c565b602082019050919050565b611127816117f1565b82525050565b61113e611139826117f1565b611948565b82525050565b61114d816117fb565b82525050565b600061115f828461101b565b915081905092915050565b6000611176828761101b565b9150611182828661112d565b602082019150611192828561101b565b915061119e8284610fcb565b60148201915081905095945050505050565b60006111bb8261104c565b91506111c78284610fb4565b60208201915081905092915050565b60006111e1826110d8565b9150819050919050565b60006020820190506112006000830184610f96565b92915050565b600060808201905061121b6000830187610fa5565b6112286020830186611144565b6112356040830185610fa5565b6112426060830184610fa5565b95945050505050565b600060208201905081810360008301526112658184610fe2565b905092915050565b600060408201905081810360008301526112878185610fe2565b90506112966020830184610f96565b9392505050565b600060408201905081810360008301526112b78185610fe2565b905081810360208301526112cb8184610fe2565b90509392505050565b600060408201905081810360008301526112ee8185610fe2565b90506112fd602083018461111e565b9392505050565b6000602082019050818103600083015261131d8161106f565b9050919050565b6000602082019050818103600083015261133d81611092565b9050919050565b6000602082019050818103600083015261135d816110b5565b9050919050565b6000602082019050818103600083015261137d816110fb565b9050919050565b6000602082019050611399600083018461111e565b92915050565b60006113a96113ba565b90506113b582826118a0565b919050565b6000604051905090565b600067ffffffffffffffff8211156113df576113de6119df565b5b6113e882611a0e565b9050602081019050919050565b600067ffffffffffffffff8211156114105761140f6119df565b5b61141982611a0e565b9050602081019050919050565b600081519050919050565b600081905092915050565b600082825260208201905092915050565b600081905092915050565b6000611463826117f1565b915061146e836117f1565b9250827fffffffffffffffffffffffffffffffffffffffffffffffffffffffffffffffff038211156114a3576114a2611952565b5b828201905092915050565b60006114b9826117fb565b91506114c4836117fb565b92508260ff038211156114da576114d9611952565b5b828201905092915050565b60006114f0826117f1565b91506114fb836117f1565b92508261150b5761150a611981565b5b828204905092915050565b6000611521826117fb565b915061152c836117fb565b92508261153c5761153b611981565b5b828204905092915050565b6000808291508390505b60018511156115915780860481111561156d5761156c611952565b5b600185161561157c5780820291505b808102905061158a85611a2c565b9450611551565b94509492505050565b60006115a5826117f1565b91506115b0836117f1565b92506115dd7fffffffffffffffffffffffffffffffffffffffffffffffffffffffffffffffff84846115e5565b905092915050565b6000826115f557600190506116b1565b8161160357600090506116b1565b8160018114611619576002811461162357611652565b60019150506116b1565b60ff84111561163557611634611952565b5b8360020a91508482111561164c5761164b611952565b5b506116b1565b5060208310610133831016604e8410600b84101617156116875782820a90508381111561168257611681611952565b5b6116b1565b6116948484846001611547565b925090508184048111156116ab576116aa611952565b5b81810290505b9392505050565b60006116c3826117f1565b91506116ce836117f1565b9250817fffffffffffffffffffffffffffffffffffffffffffffffffffffffffffffffff048311821515161561170757611706611952565b5b828202905092915050565b600061171d826117fb565b9150611728836117fb565b92508160ff048311821515161561174257611741611952565b5b828202905092915050565b6000611758826117f1565b9150611763836117f1565b92508282101561177657611775611952565b5b828203905092915050565b600061178c826117fb565b9150611797836117fb565b9250828210156117aa576117a9611952565b5b828203905092915050565b60006117c0826117d1565b9050919050565b6000819050919050565b600073ffffffffffffffffffffffffffffffffffffffff82169050919050565b6000819050919050565b600060ff82169050919050565b60006118138261181a565b9050919050565b6000611825826117d1565b9050919050565b82818337600083830152505050565b60005b8381101561185957808201518184015260208101905061183e565b83811115611868576000848401525b50505050565b6000600282049050600182168061188657607f821691505b6020821081141561189a576118996119b0565b5b50919050565b6118a982611a0e565b810181811067ffffffffffffffff821117156118c8576118c76119df565b5b80604052505050565b60006118dc826117f1565b91507fffffffffffffffffffffffffffffffffffffffffffffffffffffffffffffffff82141561190f5761190e611952565b5b600182019050919050565b600061192582611936565b9050919050565b6000819050919050565b600061194182611a1f565b9050919050565b6000819050919050565b7f4e487b7100000000000000000000000000000000000000000000000000000000600052601160045260246000fd5b7f4e487b7100000000000000000000000000000000000000000000000000000000600052601260045260246000fd5b7f4e487b7100000000000000000000000000000000000000000000000000000000600052602260045260246000fd5b7f4e487b7100000000000000000000000000000000000000000000000000000000600052604160045260246000fd5b6000601f19601f8301169050919050565b60008160601b9050919050565b60008160011c9050919050565b7f19457468657265756d205369676e6564204d6573736167653a0a333200000000600082015250565b7f547279696e6720746f207769746864726177206d6f7265206d6f6e657920746860008201527f616e2074686520636f6e7472616374206861732e000000000000000000000000602082015250565b7f4661696c656420746f207769746864726177206d6f6e65792066726f6d20636f60008201527f6e74726163742e00000000000000000000000000000000000000000000000000602082015250565b7f5369676e6174757265206973206e6f742076616c69642e000000000000000000600082015250565b50565b7f696e76616c6964207369676e6174757265206c656e6774680000000000000000600082015250565b611b5e816117f1565b8114611b6957600080fd5b5056fea26469706673582212207cb26b7d35e13b3abb563293e0e4c17bc3e1b54a32579a8631b2b7ef0d67f65164736f6c63430008040033",
  "linkReferences": {},
  "deployedLinkReferences": {}
}